:100000000C942A000C943F000C943F000C943F0089
:100010000C943F000C943F000C943F000C943F0064
:100020000C943F000C943F000C943F000C943F0054
:100030000C943F000C943F000C943F000C943F0044
:100040000C943F000C943F000C943F000C943F0034
:100050000C943F0011241FBECFE5D8E0DEBFCDBF1A
:1000600010E0A0E6B0E0EAE6F6E002C005900D92EE
:10007000A23BB107D9F70E94EE020C9433030C9413
:10008000000061E089E00E94BE0060E08AE00E941A
:10009000BE0061E08DE00E94BE0060E08EE00E9444
:1000A000BE0061E08BE00E94BE0061E08CE00E9437
:1000B000BE00089560E089E00E94BE0061E08AE031
:1000C0000E94BE0060E08DE00E94BE0061E08EE014
:1000D0000E94BE0061E08BE00E94BE0061E08CE007
:1000E0000E94BE00089561E089E00E94BE0060E0C9
:1000F0008AE00E94BE0061E08DE00E94BE0060E0E8
:100100008EE00E94BE0060E08BE00E94BE0061E0D5
:100110008CE00E94BE00089561E089E00E94BE006C
:1001200060E08AE00E94BE0061E08DE00E94BE00B7
:1001300060E08EE00E94BE0061E08BE00E94BE00A5
:1001400060E08CE00E94BE00089561E089E00E94BA
:10015000BE0060E08AE00E94BE0061E08DE00E9487
:10016000BE0060E08EE00E94BE0060E08BE00E9476
:10017000BE0060E08CE00E94BE000895982F97704A
:10018000869586958695813021F130F08230F1F1A7
:10019000833009F458C00895613069F44BB321E00D
:1001A00030E0B90102C0660F771F9A95E2F7CB01E4
:1001B000842B8BBB08954BB321E030E0B90102C022
:1001C000660F771F9A95E2F7CB01809584238BBB4E
:1001D0000895613069F448B321E030E0B90102C00C
:1001E000660F771F9A95E2F7CB01842B88BB0895A1
:1001F00048B321E030E0B90102C0660F771F9A953D
:10020000E2F7CB018095842388BB0895613069F4BF
:1002100045B321E030E0B90102C0660F771F9A951F
:10022000E2F7CB01842B85BB089545B321E030E094
:10023000B90102C0660F771F9A95E2F7CB0180954E
:10024000842385BB0895613069F442B321E030E036
:10025000B90102C0660F771F9A95E2F7CB01842B94
:1002600082BB089542B321E030E0B90102C0660FBD
:10027000771F9A95E2F7CB018095842382BB08957E
:10028000282F2770869586958695813079F028F0FD
:100290008230A9F08330E1F024C089B390E002C03D
:1002A000959587952A95E2F78170089586B390E039
:1002B00002C0959587952A95E2F78170089583B3DA
:1002C00090E002C0959587952A95E2F78170089590
:1002D00080B390E002C0959587952A95E2F78170EA
:1002E000089580E00895CF93DF93E1E6F0E020E009
:1002F00030E061E070E0422F4770C9019695879524
:100300009695879596958795992781309105E9F17E
:1003100040F08230910509F46CC0039709F49DC048
:10032000CFC0EF018081813059F45AB3CB01042E44
:1003300002C0880F991F0A94E2F7852B8ABB0CC074
:100340009AB3DB01042E02C0AA0FBB1F0A94E2F786
:100350008A2F809589238ABB8981813051F45BB3D0
:10036000CB0102C0880F991F4A95E2F7852B8BBB02
:10037000A7C09BB3DB0102C0AA0FBB1F4A95E2F7DF
:100380008A2F809589238BBB9BC0EF0180818130B0
:1003900059F457B3CB01042E02C0880F991F0A9459
:1003A000E2F7852B87BB0CC097B3DB01042E02C09C
:1003B000AA0FBB1F0A94E2F78A2F8095892387BB77
:1003C0008981813051F458B3CB0102C0880F991F45
:1003D0004A95E2F7852B88BB73C098B3DB0102C056
:1003E000AA0FBB1F4A95E2F78A2F8095892388BB05
:1003F00067C0EF018081813059F454B3CB01042EE2
:1004000002C0880F991F0A94E2F7852B84BB0CC0A9
:1004100094B3DB01042E02C0AA0FBB1F0A94E2F7BB
:100420008A2F8095892384BB8981813051F455B30B
:10043000CB0102C0880F991F4A95E2F7852B85BB37
:100440003FC095B3DB0102C0AA0FBB1F4A95E2F77C
:100450008A2F8095892385BB33C0EF01808181304D
:1004600059F451B3CB01042E02C0880F991F0A948E
:10047000E2F7852B81BB0CC091B3DB01042E02C0D7
:10048000AA0FBB1F0A94E2F78A2F8095892381BBAC
:100490008981813051F452B3CB0102C0880F991F7A
:1004A0004A95E2F7852B82BB0BC092B3DB0102C0F9
:1004B000AA0FBB1F4A95E2F78A2F8095892382BB3A
:1004C0002F5F3F4F32962032310509F014CFDF9174
:1004D000CF910895CF93C82F84E10E9440018111EC
:1004E00005C08C2F880F880F8093600085E10E94E3
:1004F0004001811106C08C2F880F880F8F5F809379
:10050000600086E10E944001811106C08C2F880F97
:10051000880F8E5F8093600087E10E944001811107
:1005200005C0CC0FCC0FCD5FC0936000CF91089574
:1005300060E080E10E94BE0061E081E10E94BE00B7
:1005400061E082E10E94BE0061E083E10E94BE00A2
:1005500080E00E946A0261E080E10E94BE0060E0EB
:1005600081E10E94BE0061E082E10E94BE0061E084
:1005700083E10E94BE0081E00E946A0261E080E1A6
:100580000E94BE0061E081E10E94BE0060E082E165
:100590000E94BE0061E083E10E94BE0082E00E94F2
:1005A0006A0261E080E10E94BE0061E081E10E9498
:1005B000BE0061E082E10E94BE0060E083E10E9433
:1005C000BE0083E00E946A02809160008F3F29F0A4
:1005D000E82FF0E0EF55FF4F808108950E947301EE
:1005E0000E9420030E94F502FDCF0E9498028833EA
:1005F00011F40E9441000E949802823311F40E947B
:100600005A000E949802843311F40E9473000E94E1
:100610009802863311F40E948C000E949802833362
:1006200011F40E9429030E949802813311F40E9460
:100630002E030E949802853311F40E94A5000895AC
:1006400082E88FBD8BE18EBD87E893E197BD86BDC3
:10065000089589EF90E09BBD8ABD089584EF91E0F5
:0A0660009BBD8ABD0895F894FFCFFA
:10066A00FF01000100010001000100010001000179
:10067A000001000100010001000100010001000168
:10068A000001000100010001000001000100010059
:10069A000101000100010001000100010001000048
:1006AA000037383925343536783132332D43303DE9
:0206BA002B0013
:00000001FF
